{
  "_format": "hh-sol-artifact-1",
  "contractName": "SupplyChain",
  "sourceName": "contracts/SupplyChain.sol",
  "abi": [
    {
      "anonymous": false,
      "inputs": [
        {
          "indexed": false,
          "internalType": "string",
          "name": "batchId",
          "type": "string"
        },
        {
          "indexed": false,
          "internalType": "string",
          "name": "ipfsHash",
          "type": "string"
        },
        {
          "indexed": false,
          "internalType": "address",
          "name": "owner",
          "type": "address"
        }
      ],
      "name": "BatchAdded",
      "type": "event"
    },
    {
      "inputs": [
        {
          "internalType": "string",
          "name": "_batchId",
          "type": "string"
        },
        {
          "internalType": "string",
          "name": "_ipfsHash",
          "type": "string"
        }
      ],
      "name": "addBatch",
      "outputs": [],
      "stateMutability": "nonpayable",
      "type": "function"
    },
    {
      "inputs": [
        {
          "internalType": "string",
          "name": "",
          "type": "string"
        }
      ],
      "name": "batches",
      "outputs": [
        {
          "internalType": "string",
          "name": "batchId",
          "type": "string"
        },
        {
          "internalType": "string",
          "name": "ipfsHash",
          "type": "string"
        },
        {
          "internalType": "address",
          "name": "owner",
          "type": "address"
        }
      ],
      "stateMutability": "view",
      "type": "function"
    },
    {
      "inputs": [
        {
          "internalType": "string",
          "name": "_batchId",
          "type": "string"
        }
      ],
      "name": "getBatch",
      "outputs": [
        {
          "internalType": "string",
          "name": "",
          "type": "string"
        },
        {
          "internalType": "string",
          "name": "",
          "type": "string"
        },
        {
          "internalType": "address",
          "name": "",
          "type": "address"
        }
      ],
      "stateMutability": "view",
      "type": "function"
    }
  ],
  "bytecode": "0x608060405234801561001057600080fd5b50610d22806100206000396000f3fe608060405234801561001057600080fd5b50600436106100415760003560e01c80631bcee826146100465780637ef1446a14610062578063f9ca427414610094575b600080fd5b610060600480360381019061005b9190610713565b6100c6565b005b61007c6004803603810190610077919061078b565b610239565b60405161008b93929190610894565b60405180910390f35b6100ae60048036038101906100a9919061078b565b6103a9565b6040516100bd93929190610894565b60405180910390f35b600080836040516100d79190610915565b908152602001604051809103902060000180546100f39061095b565b905014610135576040517f08c379a000000000000000000000000000000000000000000000000000000000815260040161012c906109d8565b60405180910390fd5b60405180606001604052808381526020018281526020013373ffffffffffffffffffffffffffffffffffffffff168152506000836040516101769190610915565b908152602001604051809103902060008201518160000190816101999190610bae565b5060208201518160010190816101af9190610bae565b5060408201518160020160006101000a81548173ffffffffffffffffffffffffffffffffffffffff021916908373ffffffffffffffffffffffffffffffffffffffff1602179055509050507f05c5c9e8e139ceaab99f2cef14c33d4bdd43a24135f3f26dd8f2e3e678ce504382823360405161022d93929190610894565b60405180910390a15050565b6000818051602081018201805184825260208301602085012081835280955050505050506000915090508060000180546102729061095b565b80601f016020809104026020016040519081016040528092919081815260200182805461029e9061095b565b80156102eb5780601f106102c0576101008083540402835291602001916102eb565b820191906000526020600020905b8154815290600101906020018083116102ce57829003601f168201915b5050505050908060010180546103009061095b565b80601f016020809104026020016040519081016040528092919081815260200182805461032c9061095b565b80156103795780601f1061034e57610100808354040283529160200191610379565b820191906000526020600020905b81548152906001019060200180831161035c57829003601f168201915b5050505050908060020160009054906101000a900473ffffffffffffffffffffffffffffffffffffffff16905083565b6060806000806000856040516103bf9190610915565b90815260200160405180910390206040518060600160405290816000820180546103e89061095b565b80601f01602080910402602001604051908101604052809291908181526020018280546104149061095b565b80156104615780601f1061043657610100808354040283529160200191610461565b820191906000526020600020905b81548152906001019060200180831161044457829003601f168201915b5050505050815260200160018201805461047a9061095b565b80601f01602080910402602001604051908101604052809291908181526020018280546104a69061095b565b80156104f35780601f106104c8576101008083540402835291602001916104f3565b820191906000526020600020905b8154815290600101906020018083116104d657829003601f168201915b505050505081526020016002820160009054906101000a900473ffffffffffffffffffffffffffffffffffffffff1673ffffffffffffffffffffffffffffffffffffffff1673ffffffffffffffffffffffffffffffffffffffff1681525050905060008160000151511161059c576040517f08c379a000000000000000000000000000000000000000000000000000000000815260040161059390610ccc565b60405180910390fd5b806000015181602001518260400151935093509350509193909250565b6000604051905090565b600080fd5b600080fd5b600080fd5b600080fd5b6000601f19601f8301169050919050565b7f4e487b7100000000000000000000000000000000000000000000000000000000600052604160045260246000fd5b610620826105d7565b810181811067ffffffffffffffff8211171561063f5761063e6105e8565b5b80604052505050565b60006106526105b9565b905061065e8282610617565b919050565b600067ffffffffffffffff82111561067e5761067d6105e8565b5b610687826105d7565b9050602081019050919050565b82818337600083830152505050565b60006106b66106b184610663565b610648565b9050828152602081018484840111156106d2576106d16105d2565b5b6106dd848285610694565b509392505050565b600082601f8301126106fa576106f96105cd565b5b813561070a8482602086016106a3565b91505092915050565b6000806040838503121561072a576107296105c3565b5b600083013567ffffffffffffffff811115610748576107476105c8565b5b610754858286016106e5565b925050602083013567ffffffffffffffff811115610775576107746105c8565b5b610781858286016106e5565b9150509250929050565b6000602082840312156107a1576107a06105c3565b5b600082013567ffffffffffffffff8111156107bf576107be6105c8565b5b6107cb848285016106e5565b91505092915050565b600081519050919050565b600082825260208201905092915050565b60005b8381101561080e5780820151818401526020810190506107f3565b60008484015250505050565b6000610825826107d4565b61082f81856107df565b935061083f8185602086016107f0565b610848816105d7565b840191505092915050565b600073ffffffffffffffffffffffffffffffffffffffff82169050919050565b600061087e82610853565b9050919050565b61088e81610873565b82525050565b600060608201905081810360008301526108ae818661081a565b905081810360208301526108c2818561081a565b90506108d16040830184610885565b949350505050565b600081905092915050565b60006108ef826107d4565b6108f981856108d9565b93506109098185602086016107f0565b80840191505092915050565b600061092182846108e4565b915081905092915050565b7f4e487b7100000000000000000000000000000000000000000000000000000000600052602260045260246000fd5b6000600282049050600182168061097357607f821691505b6020821081036109865761098561092c565b5b50919050565b7f426174636820616c726561647920657869737473000000000000000000000000600082015250565b60006109c26014836107df565b91506109cd8261098c565b602082019050919050565b600060208201905081810360008301526109f1816109b5565b9050919050565b60008190508160005260206000209050919050565b60006020601f8301049050919050565b600082821b905092915050565b600060088302610a5a7fffffffffffffffffffffffffffffffffffffffffffffffffffffffffffffffff82610a1d565b610a648683610a1d565b95508019841693508086168417925050509392505050565b6000819050919050565b6000819050919050565b6000610aab610aa6610aa184610a7c565b610a86565b610a7c565b9050919050565b6000819050919050565b610ac583610a90565b610ad9610ad182610ab2565b848454610a2a565b825550505050565b600090565b610aee610ae1565b610af9818484610abc565b505050565b5b81811015610b1d57610b12600082610ae6565b600181019050610aff565b5050565b601f821115610b6257610b33816109f8565b610b3c84610a0d565b81016020851015610b4b578190505b610b5f610b5785610a0d565b830182610afe565b50505b505050565b600082821c905092915050565b6000610b8560001984600802610b67565b1980831691505092915050565b6000610b9e8383610b74565b9150826002028217905092915050565b610bb7826107d4565b67ffffffffffffffff811115610bd057610bcf6105e8565b5b610bda825461095b565b610be5828285610b21565b600060209050601f831160018114610c185760008415610c06578287015190505b610c108582610b92565b865550610c78565b601f198416610c26866109f8565b60005b82811015610c4e57848901518255600182019150602085019450602081019050610c29565b86831015610c6b5784890151610c67601f891682610b74565b8355505b6001600288020188555050505b505050505050565b7f426174636820646f6573206e6f74206578697374000000000000000000000000600082015250565b6000610cb66014836107df565b9150610cc182610c80565b602082019050919050565b60006020820190508181036000830152610ce581610ca9565b905091905056fea26469706673582212201cae29d99cbdebf31ed0d57b4ac6afdaad68237923d9dd64558dae1c5db4a86b64736f6c63430008140033",
  "linkReferences": {},
  "deployedLinkReferences": {}
}